{
  "contractName": "Comp",
  "abi": [
    {
      "inputs": [
        {
          "internalType": "string",
          "name": "_name",
          "type": "string"
        },
        {
          "internalType": "string",
          "name": "_symbol",
          "type": "string"
        },
        {
          "internalType": "uint256",
          "name": "_totalSupply",
          "type": "uint256"
        }
      ],
      "stateMutability": "nonpayable",
      "type": "constructor"
    },
    {
      "anonymous": false,
      "inputs": [
        {
          "indexed": true,
          "internalType": "address",
          "name": "_owner",
          "type": "address"
        },
        {
          "indexed": true,
          "internalType": "address",
          "name": "_spender",
          "type": "address"
        },
        {
          "indexed": false,
          "internalType": "uint256",
          "name": "_value",
          "type": "uint256"
        }
      ],
      "name": "Approval",
      "type": "event"
    },
    {
      "anonymous": false,
      "inputs": [
        {
          "indexed": true,
          "internalType": "address",
          "name": "_from",
          "type": "address"
        },
        {
          "indexed": true,
          "internalType": "address",
          "name": "_to",
          "type": "address"
        },
        {
          "indexed": false,
          "internalType": "uint256",
          "name": "_value",
          "type": "uint256"
        }
      ],
      "name": "Transfer",
      "type": "event"
    },
    {
      "inputs": [
        {
          "internalType": "address",
          "name": "_owner",
          "type": "address"
        },
        {
          "internalType": "address",
          "name": "_spender",
          "type": "address"
        }
      ],
      "name": "allownance",
      "outputs": [
        {
          "internalType": "uint256",
          "name": "remaining",
          "type": "uint256"
        }
      ],
      "stateMutability": "view",
      "type": "function",
      "constant": true
    },
    {
      "inputs": [
        {
          "internalType": "address",
          "name": "_spender",
          "type": "address"
        },
        {
          "internalType": "uint256",
          "name": "_value",
          "type": "uint256"
        }
      ],
      "name": "approve",
      "outputs": [
        {
          "internalType": "bool",
          "name": "success",
          "type": "bool"
        }
      ],
      "stateMutability": "nonpayable",
      "type": "function"
    },
    {
      "inputs": [
        {
          "internalType": "address",
          "name": "_owner",
          "type": "address"
        }
      ],
      "name": "balanceOf",
      "outputs": [
        {
          "internalType": "uint256",
          "name": "",
          "type": "uint256"
        }
      ],
      "stateMutability": "view",
      "type": "function",
      "constant": true
    },
    {
      "inputs": [],
      "name": "decimals",
      "outputs": [
        {
          "internalType": "uint8",
          "name": "",
          "type": "uint8"
        }
      ],
      "stateMutability": "view",
      "type": "function",
      "constant": true
    },
    {
      "inputs": [],
      "name": "name",
      "outputs": [
        {
          "internalType": "string",
          "name": "",
          "type": "string"
        }
      ],
      "stateMutability": "view",
      "type": "function",
      "constant": true
    },
    {
      "inputs": [],
      "name": "symbol",
      "outputs": [
        {
          "internalType": "string",
          "name": "",
          "type": "string"
        }
      ],
      "stateMutability": "view",
      "type": "function",
      "constant": true
    },
    {
      "inputs": [],
      "name": "totalSupply",
      "outputs": [
        {
          "internalType": "uint256",
          "name": "",
          "type": "uint256"
        }
      ],
      "stateMutability": "view",
      "type": "function",
      "constant": true
    },
    {
      "inputs": [
        {
          "internalType": "address",
          "name": "_to",
          "type": "address"
        },
        {
          "internalType": "uint256",
          "name": "_value",
          "type": "uint256"
        }
      ],
      "name": "transfer",
      "outputs": [
        {
          "internalType": "bool",
          "name": "success",
          "type": "bool"
        }
      ],
      "stateMutability": "nonpayable",
      "type": "function"
    },
    {
      "inputs": [
        {
          "internalType": "address",
          "name": "_from",
          "type": "address"
        },
        {
          "internalType": "address",
          "name": "_to",
          "type": "address"
        },
        {
          "internalType": "uint256",
          "name": "_value",
          "type": "uint256"
        }
      ],
      "name": "transferFrom",
      "outputs": [
        {
          "internalType": "bool",
          "name": "success",
          "type": "bool"
        }
      ],
      "stateMutability": "nonpayable",
      "type": "function"
    }
  ],
  "bytecode": "0x60806040526012600260006101000a81548160ff021916908360ff1602179055503480156200002d57600080fd5b506040516200133e3803806200133e8339818101604052810190620000539190620003d3565b82828282600090805190602001906200006e9291906200014b565b508160019080519060200190620000879291906200014b565b5080600381905550600354600460003373ffffffffffffffffffffffffffffffffffffffff1673ffffffffffffffffffffffffffffffffffffffff168152602001908152602001600020819055503373ffffffffffffffffffffffffffffffffffffffff16600073ffffffffffffffffffffffffffffffffffffffff167fddf252ad1be2c89b69c2b068fc378daa952ba7f163c4a11628f55a4df523b3ef6003546040516200013791906200047e565b60405180910390a350505050505062000500565b8280546200015990620004ca565b90600052602060002090601f0160209004810192826200017d5760008555620001c9565b82601f106200019857805160ff1916838001178555620001c9565b82800160010185558215620001c9579182015b82811115620001c8578251825591602001919060010190620001ab565b5b509050620001d89190620001dc565b5090565b5b80821115620001f7576000816000905550600101620001dd565b5090565b6000604051905090565b600080fd5b600080fd5b600080fd5b600080fd5b6000601f19601f8301169050919050565b7f4e487b7100000000000000000000000000000000000000000000000000000000600052604160045260246000fd5b620002648262000219565b810181811067ffffffffffffffff821117156200028657620002856200022a565b5b80604052505050565b60006200029b620001fb565b9050620002a9828262000259565b919050565b600067ffffffffffffffff821115620002cc57620002cb6200022a565b5b620002d78262000219565b9050602081019050919050565b60005b8381101562000304578082015181840152602081019050620002e7565b8381111562000314576000848401525b50505050565b6000620003316200032b84620002ae565b6200028f565b90508281526020810184848401111562000350576200034f62000214565b5b6200035d848285620002e4565b509392505050565b600082601f8301126200037d576200037c6200020f565b5b81516200038f8482602086016200031a565b91505092915050565b6000819050919050565b620003ad8162000398565b8114620003b957600080fd5b50565b600081519050620003cd81620003a2565b92915050565b600080600060608486031215620003ef57620003ee62000205565b5b600084015167ffffffffffffffff81111562000410576200040f6200020a565b5b6200041e8682870162000365565b935050602084015167ffffffffffffffff8111156200044257620004416200020a565b5b620004508682870162000365565b92505060406200046386828701620003bc565b9150509250925092565b620004788162000398565b82525050565b60006020820190506200049560008301846200046d565b92915050565b7f4e487b7100000000000000000000000000000000000000000000000000000000600052602260045260246000fd5b60006002820490506001821680620004e357607f821691505b60208210811415620004fa57620004f96200049b565b5b50919050565b610e2e80620005106000396000f3fe608060405234801561001057600080fd5b50600436106100935760003560e01c8063313ce56711610066578063313ce567146101345780636b0500c31461015257806370a082311461018257806395d89b41146101b2578063a9059cbb146101d057610093565b806306fdde0314610098578063095ea7b3146100b657806318160ddd146100e657806323b872dd14610104575b600080fd5b6100a0610200565b6040516100ad9190610922565b60405180910390f35b6100d060048036038101906100cb91906109dd565b61028e565b6040516100dd9190610a38565b60405180910390f35b6100ee610380565b6040516100fb9190610a62565b60405180910390f35b61011e60048036038101906101199190610a7d565b610386565b60405161012b9190610a38565b60405180910390f35b61013c6104f1565b6040516101499190610aec565b60405180910390f35b61016c60048036038101906101679190610b07565b610504565b6040516101799190610a62565b60405180910390f35b61019c60048036038101906101979190610b47565b61058b565b6040516101a99190610a62565b60405180910390f35b6101ba6105d4565b6040516101c79190610922565b60405180910390f35b6101ea60048036038101906101e591906109dd565b610662565b6040516101f79190610a38565b60405180910390f35b6000805461020d90610ba3565b80601f016020809104026020016040519081016040528092919081815260200182805461023990610ba3565b80156102865780601f1061025b57610100808354040283529160200191610286565b820191906000526020600020905b81548152906001019060200180831161026957829003601f168201915b505050505081565b600081600560003373ffffffffffffffffffffffffffffffffffffffff1673ffffffffffffffffffffffffffffffffffffffff16815260200190815260200160002060008573ffffffffffffffffffffffffffffffffffffffff1673ffffffffffffffffffffffffffffffffffffffff168152602001908152602001600020819055508273ffffffffffffffffffffffffffffffffffffffff163373ffffffffffffffffffffffffffffffffffffffff167f8c5be1e5ebec7d5bd14f71427d1e84f3dd0314c0f7b2291e5b200ac8c7c3b9258460405161036e9190610a62565b60405180910390a36001905092915050565b60035481565b600081600560008673ffffffffffffffffffffffffffffffffffffffff1673ffffffffffffffffffffffffffffffffffffffff16815260200190815260200160002060003373ffffffffffffffffffffffffffffffffffffffff1673ffffffffffffffffffffffffffffffffffffffff168152602001908152602001600020541015610447576040517f08c379a000000000000000000000000000000000000000000000000000000000815260040161043e90610c47565b60405180910390fd5b61045284848461067a565b5081600560008673ffffffffffffffffffffffffffffffffffffffff1673ffffffffffffffffffffffffffffffffffffffff16815260200190815260200160002060003373ffffffffffffffffffffffffffffffffffffffff1673ffffffffffffffffffffffffffffffffffffffff16815260200190815260200160002060008282546104df9190610c96565b92505081905550600190509392505050565b600260009054906101000a900460ff1681565b6000600560008473ffffffffffffffffffffffffffffffffffffffff1673ffffffffffffffffffffffffffffffffffffffff16815260200190815260200160002060008373ffffffffffffffffffffffffffffffffffffffff1673ffffffffffffffffffffffffffffffffffffffff16815260200190815260200160002054905092915050565b6000600460008373ffffffffffffffffffffffffffffffffffffffff1673ffffffffffffffffffffffffffffffffffffffff168152602001908152602001600020549050919050565b600180546105e190610ba3565b80601f016020809104026020016040519081016040528092919081815260200182805461060d90610ba3565b801561065a5780601f1061062f5761010080835404028352916020019161065a565b820191906000526020600020905b81548152906001019060200180831161063d57829003601f168201915b505050505081565b600061066f33848461067a565b506001905092915050565b6000600460008573ffffffffffffffffffffffffffffffffffffffff1673ffffffffffffffffffffffffffffffffffffffff168152602001908152602001600020548211156106fe576040517f08c379a00000000000000000000000000000000000000000000000000000000081526004016106f590610d16565b60405180910390fd5b8273ffffffffffffffffffffffffffffffffffffffff168473ffffffffffffffffffffffffffffffffffffffff16141561076d576040517f08c379a000000000000000000000000000000000000000000000000000000000815260040161076490610d82565b60405180910390fd5b81600460008673ffffffffffffffffffffffffffffffffffffffff1673ffffffffffffffffffffffffffffffffffffffff16815260200190815260200160002060008282546107bc9190610c96565b9250508190555081600460008573ffffffffffffffffffffffffffffffffffffffff1673ffffffffffffffffffffffffffffffffffffffff16815260200190815260200160002060008282546108129190610da2565b925050819055508273ffffffffffffffffffffffffffffffffffffffff168473ffffffffffffffffffffffffffffffffffffffff167fddf252ad1be2c89b69c2b068fc378daa952ba7f163c4a11628f55a4df523b3ef846040516108769190610a62565b60405180910390a3600190509392505050565b600081519050919050565b600082825260208201905092915050565b60005b838110156108c35780820151818401526020810190506108a8565b838111156108d2576000848401525b50505050565b6000601f19601f8301169050919050565b60006108f482610889565b6108fe8185610894565b935061090e8185602086016108a5565b610917816108d8565b840191505092915050565b6000602082019050818103600083015261093c81846108e9565b905092915050565b600080fd5b600073ffffffffffffffffffffffffffffffffffffffff82169050919050565b600061097482610949565b9050919050565b61098481610969565b811461098f57600080fd5b50565b6000813590506109a18161097b565b92915050565b6000819050919050565b6109ba816109a7565b81146109c557600080fd5b50565b6000813590506109d7816109b1565b92915050565b600080604083850312156109f4576109f3610944565b5b6000610a0285828601610992565b9250506020610a13858286016109c8565b9150509250929050565b60008115159050919050565b610a3281610a1d565b82525050565b6000602082019050610a4d6000830184610a29565b92915050565b610a5c816109a7565b82525050565b6000602082019050610a776000830184610a53565b92915050565b600080600060608486031215610a9657610a95610944565b5b6000610aa486828701610992565b9350506020610ab586828701610992565b9250506040610ac6868287016109c8565b9150509250925092565b600060ff82169050919050565b610ae681610ad0565b82525050565b6000602082019050610b016000830184610add565b92915050565b60008060408385031215610b1e57610b1d610944565b5b6000610b2c85828601610992565b9250506020610b3d85828601610992565b9150509250929050565b600060208284031215610b5d57610b5c610944565b5b6000610b6b84828501610992565b91505092915050565b7f4e487b7100000000000000000000000000000000000000000000000000000000600052602260045260246000fd5b60006002820490506001821680610bbb57607f821691505b60208210811415610bcf57610bce610b74565b5b50919050565b7f5472616e7366657220616d6f7574206578636565647320616c6c6f776e61636560008201527f2e00000000000000000000000000000000000000000000000000000000000000602082015250565b6000610c31602183610894565b9150610c3c82610bd5565b604082019050919050565b60006020820190508181036000830152610c6081610c24565b9050919050565b7f4e487b7100000000000000000000000000000000000000000000000000000000600052601160045260246000fd5b6000610ca1826109a7565b9150610cac836109a7565b925082821015610cbf57610cbe610c67565b5b828203905092915050565b7f496e73756666696369656e742062616c616e6365000000000000000000000000600082015250565b6000610d00601483610894565b9150610d0b82610cca565b602082019050919050565b60006020820190508181036000830152610d2f81610cf3565b9050919050565b7f66726f6d203d20746f0000000000000000000000000000000000000000000000600082015250565b6000610d6c600983610894565b9150610d7782610d36565b602082019050919050565b60006020820190508181036000830152610d9b81610d5f565b9050919050565b6000610dad826109a7565b9150610db8836109a7565b9250827fffffffffffffffffffffffffffffffffffffffffffffffffffffffffffffffff03821115610ded57610dec610c67565b5b82820190509291505056fea2646970667358221220b7d9d32c31aaa51d0925cf9a7487e8b293470121968d5296f70c8c3506adada964736f6c634300080b0033",
  "immutableReferences": {},
  "source": "// SPDX-License-Identifier: MIT\npragma solidity ^0.8.11;\n\nimport \"./ERC20.sol\";\n\ncontract Dai is ERC20 {\n    constructor(\n        string memory _name,\n        string memory _symbol,\n        uint256 _totalSupply\n    ) ERC20(_name, _symbol, _totalSupply) {}\n}\n\ncontract Link is ERC20 {\n    constructor(\n        string memory _name,\n        string memory _symbol,\n        uint256 _totalSupply\n    ) ERC20(_name, _symbol, _totalSupply) {}\n}\n\ncontract Comp is ERC20 {\n    constructor(\n        string memory _name,\n        string memory _symbol,\n        uint256 _totalSupply\n    ) ERC20(_name, _symbol, _totalSupply) {}\n}\n",
  "sourcePath": "/Users/ryo/dev-test/dex/contracts/tokens.sol",
  "compiler": {
    "name": "solc",
    "version": "0.8.11+commit.d7f03943.Emscripten.clang"
  },
  "schemaVersion": "3.4.5",
  "updatedAt": "2022-05-10T23:43:53.911Z",
  "networkType": "ethereum",
  "devdoc": {
    "kind": "dev",
    "methods": {},
    "version": 1
  },
  "userdoc": {
    "kind": "user",
    "methods": {},
    "version": 1
  }
}